:100000000C9494000C94B2000C94B2000C94B200C6
:100010000C94B2000C94B2000C94B2000C94B20098
:100020000C94B2000C94B2000C94B2000C94770DB6
:100030000C94B2000C94B2000C94B2000C94B20078
:100040000C94130D0C94B2000C94B2000C94B200FA
:100050000C94B2000C94B2000C94DF080C940F0ABC
:100060000C94B2000C9498090C94B2000C94B20059
:100070000C94B2001201000200000020A020864172
:100080000010010203010902290001010080640936
:1000900004000002030000000921110100012235C3
:1000A000000705810340000A0705020340000A28F3
:1000B00003480065006C0069006F006E0020004D71
:1000C000006900630072006F0073007900730074B0
:1000D0000065006D0073000C0348005500330032CA
:1000E0000030000C033100300030003400350004D3
:1000F00003090406FFFF0901A10109020903150014
:1001000026FF00750895408102090409051500269F
:10011000FF0075089540910209060907150026FFA2
:100120000075089504B102C011241FBECFEFD2E0C4
:10013000DEBFCDBF81E011E0A0E0B1E0E0E0F6E29B
:1001400002C005900D92A230B107D9F712E0A2E0EB
:10015000B1E001C01D92AA39B107E1F70E94880100
:100160000C94FE120C94000080910501882329F064
:1001700010920501E4E9F1E023C080910201882397
:1001800041F0E8E5F1E08550808310920201349758
:1001900017C080910301882341F0E8EDF1E085501C
:1001A00080831092030134970BC08091040188234F
:1001B00051F1E8E1F1E08550808310920401349719
:1001C0008481482F4B5F11F480E00FC05E2F2E2FEB
:1001D0003F2FF901A1EFB0E081918C938E2F851B09
:1001E0008417D0F3403438F4842FE1EFF0E010822C
:1001F0008F5F8034E0F3E8EEF0E080818E7F8083D3
:1002000080818F77808308950F931F93109205014B
:10021000A4E9B1E0FD018193608312962C931297BB
:1002200013961C92139714964C93442359F0A9E902
:10023000B1E0202F312FF90181918D938E2F801BFA
:100240008417D0F3409305011F910F910895EF9209
:100250000F93FC01608341830283E38224830F9127
:10026000EF900895EF920F931F93382F562F142F6E
:10027000022F1092050184E991E0632F452F212F71
:10028000EE240E9427011B5F109305011F910F911F
:10029000EF900895089581E08093E9008091E8004F
:1002A00085FF02C00E94B400089582E08093E900B7
:1002B0008091E80082FF1DC0E1EFF0E09081608155
:1002C000808180812081A4E1B2E04FE452E080810E
:1002D0008D93A417B507D9F7892F44E152E00E9406
:1002E0001A0CE8EEF0E080818B7F808380818F772D
:1002F0008083089580919602882321F00E94550101
:100300000E944B0108958EEF87B90E944A0B089511
:10031000E3E6F0E080818E7F80830E9469110E9475
:10032000C9110E94641180E090E0089580E0089572
:10033000CF93DF93892BE1F429EE30E081E0E901EE
:100340008883EBEEF0E0808180618083AAEEB0E0EC
:1003500092E09C931C928081886080839883808146
:100360008061808384E08C931C928081886080838C
:10037000DF91CF9108958330A9F5613091F061301C
:1003800028F06230C9F0633069F521C084E08093C1
:1003900097028FEE90E0909399028093980281E00B
:1003A000089588E2809397028FEA90E090939902F3
:1003B0008093980281E008958CE08093970287ED06
:1003C00090E0909399028093980281E008958CE0E8
:1003D0008093970283EE90E0909399028093980225
:1003E00081E0089580E008950F931F93DF93CF93EA
:1003F00000D000D0CDB7DEB7DE011396E1EFF0E01C
:1004000080818C93808111968C9385E380939702F1
:1004100083EF90E09093990280939802DE01119609
:1004200080818C93808111968C93E8EEF0E080813E
:10043000877F808389819A818633910528F0809116
:10044000E80082FF06C038C0809397028823B9F77E
:1004500033C04091970223EF30E008EE10E061EFE7
:1004600070E0D8018C9180FFFCCF842F942F4052F4
:10047000841751F0F9012F5F3F4FE491DB01EC93BA
:100480008150A9F1982FF4CFF80180818E7F80836D
:10049000992361F0808182FD02C0492FE2CF309321
:1004A0009902209398029093970206C03093990284
:1004B00020939802909397028091E80082FF09C0F0
:1004C000E8EEF0E080818B7F808380818F7780836E
:1004D0001AC0E8EEF0E0808182FFFDCFE8EEF0E0A8
:1004E00080818B7F808380818F7780830CC0309365
:1004F00099022093980280939702E8EEF0E08081C1
:100500008E7F8083D9CF0F900F900F900F90CF9157
:10051000DF911F910F910895E8EEF0E08081877FD1
:10052000808380818E7F8083808182FFFDCFE8EE93
:10053000F0E080818B7F808380818F7780838081D2
:100540008E7F80830895DF93CF9300D0CDB7DEB741
:10055000DE011196E1EFF0E080818C9380811196AD
:100560008C93E8EEF0E08081877F808360930701C1
:1005700080818E7F8083808180FFFDCF0F900F90E0
:10058000CF91DF910895DF93CF9300D000D0CDB706
:10059000DEB7DE011396E1EFF0E080818C9380817D
:1005A00011968C93DE01119680818C938081119637
:1005B0008C93E8EEF0E08081877F808389819A8147
:1005C000892B39F0809107018093F10080818E7F23
:1005D0008083E8EEF0E0808182FFFDCFE8EEF0E07E
:1005E00080818B7F808380818F7780830F900F90B5
:1005F0000F900F90CF91DF910895E8EEF0E08081A9
:10060000877F808380818E7F8083808182FFFDCF82
:100610008091F100853579F48091F1008A3A59F49E
:100620008091F100853539F48091F1008A3A19F40E
:1006300081E080930601E8EEF0E080818B7F80838B
:1006400080818F77808380818E7F8083808180FF0F
:10065000FDCF08950F931F93DF93CF9300D000D069
:10066000CDB7DEB7DE011396E1EFF0E080818C9329
:10067000808111968C9389E08093970288E990E0BD
:100680009093990280939802DE01119680818C9359
:10069000808111968C93E8EEF0E08081877F8083E3
:1006A00089819A818A30910528F08091E80082FF43
:1006B00006C038C0809397028823B9F733C04091B1
:1006C000970228E930E008EE10E061EF70E0D80111
:1006D0008C9180FFFCCF842F942F4052841751F0CF
:1006E000F9012F5F3F4FE491DB01EC938150A9F1B9
:1006F000982FF4CFF80180818E7F8083992361F059
:10070000808182FD02C0492FE2CF3093990220936D
:1007100098029093970206C0309399022093980212
:10072000909397028091E80082FF09C0E8EEF0E024
:1007300080818B7F808380818F7780831AC0E8EEF1
:10074000F0E0808182FFFDCFE8EEF0E080818B7FDA
:10075000808380818F7780830CC0309399022093AF
:10076000980280939702E8EEF0E080818E7F80838C
:10077000D9CF0F900F900F900F90CF91DF911F91D5
:100780000F910895E1EFF0E09081E081813879F4F4
:10079000663069F4E13219F0E23249F404C00E9493
:1007A0002A0381E008950E94F40181E008958132D6
:1007B000C1F4693019F06A30A1F40DC0E23019F0CB
:1007C000E33079F404C00E948C0281E008950E9415
:1007D000FD0281E00895892F6E2F0E94A30281E01F
:1007E0000895813A39F4623029F4892F0E94C302B6
:1007F00081E0089580E008950F931F9309EE10E0C3
:1008000081E0F801808381EC60E30E94FA1182E0CC
:10081000F801808380EC60E30E94FA111F910F9130
:100820000895833441F0843441F0823411F080E043
:10083000089583B1089586B1089589B108958334E8
:1008400079F08434C9F0823409F5E4E2F0E0908173
:10085000842F80958923942F9623892B8083089554
:10086000942F9C7FE7E2F0E02081892F80958223FE
:100870009623892B80830895EAE2F0E09081842F0B
:1008800080958923942F9623892B80830895833420
:1008900079F08434C9F0823409F5E5E2F0E0908122
:1008A000842F80958923942F9623892B8083089504
:1008B000942F9C7FE8E2F0E02081892F80958223AD
:1008C0009623892B80830895EBE2F0E09081842FBA
:1008D00080958923942F9623892B80830895449BA8
:1008E00006C0E8E2F0E080818F7E80830895E8E230
:1008F000F0E080818061808308950F931F93DF93E0
:10090000CF930F92CDB7DEB7FB01813151F0823129
:10091000B1F08031C9F48081618142810E94470435
:1009200013C080810E941104898385E161E141E067
:1009300020E08E010F5F1F4F0E94040105C08081DF
:10094000618142810E941F040F90CF91DF911F911E
:100950000F910895E5E2F0E080818F7D80838081B2
:100960008F7B8083E4E2F0E080818F7D80838081D3
:100970008F7B80831E9B04C01D9B02C080E0089576
:1009800083E0089540E850E020E030E0682F70E018
:10099000E4E2F0E0CA0186239723892B21F08081CD
:1009A0008F7D808303C0808180628083000000008F
:1009B0000000000000000000000000000000000037
:1009C0000000000000000000000080818F7B808319
:1009D0000000000000000000000000000000000017
:1009E0000000000000000000000000000000000007
:1009F00000000000000000000000000000000000F7
:100A000000000000000000000000000000000000E6
:100A10000000000000008081806480835695479527
:100A20002F5F3F4F2830310509F0B4CFE4E2F0E00A
:100A300080818F7D808300000000000000000000A6
:100A400000000000000000000000000000000000A6
:100A50000000000080818F7B808383B10000000054
:100A60000000000000000000000000000000000086
:100A70000000000000000000000000000000000076
:100A80000000000000000000000000000000000066
:100A9000000000000000000090819064908300003E
:100AA0000000000000000000807208950F931F9363
:100AB000CF93DF93182FEB01E4E2F0E080818062B6
:100AC0008083000000000000000000000000000023
:100AD0000000000000000000000000000000000016
:100AE000808180648083112311F400E007C000E05E
:100AF00089910E94C204082B1150D1F7E4E2F0E082
:100B000080818062808300000000000000000000FF
:100B100000000000000000000000000000000000D5
:100B20000000000080818F7B8083000000000000B7
:100B30000000000080818F7D8083000000000000A5
:100B400000000000000000000000000000000000A5
:100B50000000000000000000802F011181E0DF9103
:100B6000CF911F910F910895682FE4E2F0E080810A
:100B70008F7D808390E040E850E020E030E0A3E209
:100B8000B0E00000000000000000000000000000D5
:100B90000000000000000000000000000000000055
:100BA0000000000000000000000000000000000045
:100BB0000000000080818F7B808300000000000027
:100BC0000000000000000000000000000000000025
:100BD00000000000000000008C9185FD942B0000B7
:100BE0000000000000000000000000000000000005
:100BF0000000000000000000000000008081806410
:100C00008083569547952F5F3F4F2830310509F077
:100C1000B8CF662331F0E4E2F0E080818F7D8083FD
:100C200005C0E4E2F0E08081806280830000000083
:100C300000000000000000000000000000000000B4
:100C400000000000000000000000E4E2F0E080810D
:100C50008F7B808300000000000000000000000087
:100C60000000000000000000000000000000000084
:100C70000000000000000000000000000000000074
:100C80000000000000000000000000000000000064
:100C9000000000000000000000008081806480836C
:100CA00080818F7D8083892F0895CF92DF92EF928C
:100CB000FF920F931F93CF93DF93082FC62E7A01D5
:100CC000E4E2F0E0808180628083000000000000A8
:100CD0000000000000000000000000000000000014
:100CE0000000000000000000808180648083802F6D
:100CF000815071F0182F1150EA0189910E94C204AD
:100D00001150D8F7802F825090E00196E80EF91E1E
:100D100000000000000000000000000000000000D3
:100D20000000000000000000000000000000E4E2FD
:100D3000F0E080818F7D80830000000000000000D3
:100D400000000000000000000000000000000000A3
:100D500000000000000080818F7B808380818062A2
:100D60008083000000000000000000000000000080
:100D70000000000000000000000000000000000073
:100D8000808180648083F70180810E94C204CC202E
:100D9000F1F01C2D115000E0DD24D3948C2D90E057
:100DA000EC0124960F2EF4E9EF2EF1E0FF2EF02D4A
:100DB000802F112309F48D2D0E94B4059E01211B63
:100DC0003109F701E20FF31F8083115088F7E4E245
:100DD000F0E080818062808300000000000000005D
:100DE0000000000000000000000000000000000003
:100DF00000000000000080818F7B808300000000E5
:100E000000000000000080818F7D808300000000D2
:100E100000000000000000000000000000000000D2
:100E20000000000000000000000080E0DF91CF9192
:100E30001F910F91FF90EF90DF90CF9008958F92C8
:100E40009F92AF92BF92CF92DF92FF920F931F9328
:100E5000CF93DF93082F10E0C62EDD24C016D106F5
:100E600014F4FF2478C0FF24C4E2D0E00F2EF4E98C
:100E70008F2EF1E09F2EF02DA42EBB24888180625E
:100E80008883000000000000000000000000000057
:100E90000000000000000000000000000000000052
:100EA000888180648883802F0E94C204F401EF0D42
:100EB000F11D8583F394888180628883000000009F
:100EC0000000000000000000000000000000000022
:100ED0000000000000000000000088818F7B8883F4
:100EE0000000000000000000000088818F7D8883E2
:100EF00000000000000000000000000000000000F2
:100F000000000000000000000000000000000000E1
:100F100000000000000000000000000000000000D1
:100F200000000000000000000000000000000000C1
:100F300000000000000000000000000000000000B1
:100F4000000000000000000000000A0D1B1DC0167C
:100F5000D1060CF093CF84E169E14F2D20E00E948F
:100F60003201DF91CF911F910F91FF90DF90CF90D1
:100F7000BF90AF909F908F900895CF92DF92EF92A5
:100F8000FF920F931F93CF93DF93FB01843109F4FA
:100F90006FC0853170F4813109F1823120F48031E4
:100FA00009F0F1C013C0823161F1833109F0EBC067
:100FB0002DC0863109F4A3C0863108F485C087317D
:100FC00009F4CAC0893109F0DEC0D1C06F5F7F4F1C
:100FD00080810E94560580930801D5C08B010F5F68
:100FE0001F4FAB014E5F5F4F8081F80160810E940F
:100FF000550684E161E1F801408120E00E94320160
:10100000C2C00E94AA0480930801BDC010920801CA
:10101000E4E2F0E080818064808300000000000052
:101020000000000080818F7D8083000000000000B0
:101030000000000080818F7B8083000000000000A2
:1010400000000000808180628083000000000000BA
:101050000000000000000000000000000000000090
:1010600000000000000000008081806480838BC04D
:101070000000000000000000000000000000000070
:101080000000000000000000000000000000E4E29A
:10109000F0E080818F7B8083000000000000000072
:1010A000000080818F7D8083000000000000000030
:1010B0000000000000000000000000000000000030
:1010C0000000000000005FC01081112309F455C02A
:1010D000EB0100E089810E94C204082B2196115087
:1010E000C9F7E4E2F0E0808180628083002319F494
:1010F0001092080148C081E08093080144C000813B
:101100000023F1F0102F1150DD24CC24C394802F44
:1011100090E0EC0124960F2EF4E9EF2EF1E0FF2E83
:10112000F02D8D2D112309F48C2D0E94B4059E0104
:10113000211B3109F701E20FF31F8083115088F75B
:10114000E4E2F0E080818F7D808384E166E1402FDE
:1011500020E00E94320117C084E167E141E020E015
:1011600008E011E00E940401109208010CC0808187
:10117000618142810E941F0706C0E4E2F0E08081A5
:1011800080628083B5CFDF91CF911F910F91FF9047
:10119000EF90DF90CF900895FC0180818CBD81811C
:1011A0008DBD08958EBDEDE4F0E080818823ECF7DD
:1011B000EDE4F0E080818F7780838EB508951F92F3
:1011C0000F920FB60F921124EF920F931F932F934C
:1011D0003F934F935F936F937F938F939F93AF93BF
:1011E000BF93EF93FF931EB580910301882359F4B9
:1011F00084ED91E062E141E120E000E0EE240E9414
:10120000270185E002C0803440F4E4EDF1E0E80F0E
:10121000F11D10838F5F80930301FF91EF91BF91C8
:10122000AF919F918F917F916F915F914F913F917E
:101230002F911F910F91EF900F900FBE0F901F9065
:101240001895EF92FF920F931F93CF93DF93F62E93
:10125000662381F0E82E09E911E0282F392FE901F2
:1012600089910E94D208F80181938F019E012E1965
:101270002F15B0F382E161E14F2D20E00E94320191
:10128000DF91CF911F910F91FF90EF900895EF9212
:10129000FF920F93DF93CF9300D0CDB7DEB77B01E2
:1012A000042F803119F08231F9F41BC0CB01019673
:1012B0009A838983FB01808160E0E981FA81408122
:1012C0000E944704602F6250C70102960E942109C4
:1012D000F70180816FEFE981FA8140810E94470424
:1012E00003C0CB010E94CC080F900F90CF91DF91EB
:1012F0000F91FF90EF900895FC0181818093CD00C4
:1013000080818093CC000895FC0180818093C80087
:1013100081818093C90082818093CA0083818093F8
:10132000CB0084818093CC0085818093CD0008958B
:101330001F920F920FB60F9211248F939F93EF93EA
:10134000FF9380914F02882399F0815080934F0240
:1013500090918C02E0E5F2E0E90FF11D808180932D
:10136000CE009F5F90938C029B3311F410928C02FD
:10137000FF91EF919F918F910F900FBE0F901F9053
:101380001895282F90914F029B33F1F0F8949923F0
:1013900021F48091C80085FD13C080918B02E0E5A7
:1013A000F2E0E80FF11D20838F5F80938B028B3377
:1013B00011F410928B02892F8F5F80934F0202C02D
:1013C0002093CE0078940895FFCF0F931F93CF936F
:1013D000DF93062F662359F0182F282F392FE901A4
:1013E00089910E94C1099E01211B2017C8F3DF913A
:1013F000CF911F910F910895803249F0813259F0B9
:10140000803161F4CB01642F0E94E5090895CB017E
:101410000E947C090895CB010E94840908951F92BF
:101420000F920FB60F921124EF920F931F932F93E9
:101430003F934F935F936F937F938F939F93AF935C
:10144000BF93EF93FF938091C8001091CE008C71F1
:10145000C9F480910201882359F484E591E060E1A8
:1014600041E120E000E0EE240E94270185E002C077
:10147000803440F4E4E5F1E0E80FF11D10838F5F64
:1014800080930201FF91EF91BF91AF919F918F9156
:101490007F916F915F914F913F912F911F910F918C
:1014A000EF900F900FBE0F901F9018951F93FC01A7
:1014B0001281718160E08081680F711D89E991E07E
:1014C000412F50E00E94D61281E361E1412F20E0DC
:1014D0000E9432011F910895FC01462F718160E046
:1014E0008081680F711D50E042505040CF0102963C
:1014F0000E94E6120895803119F0813149F405C047
:10150000CB01642F0E946C0A0895CB010E94560AF9
:101510000895982FEBE2F0E080818D7F8083662331
:1015200021F080818160808305C0EBE2F0E0808162
:101530008E7F8083EBE2F0E080819295907F8F70C8
:10154000982B908380818460808381E08A95F1F775
:1015500080818B7F808308950F931F93182F062F10
:1015600082958F700E94890A812F8F70602F0E9450
:10157000890A1F910F910895EBE2F0E0908192604B
:101580009083EAE2F0E090819F709083882331F0AD
:10159000EBE2F0E080818160808305C0EBE2F0E067
:1015A00080818E7F8083ABE2B0E08C9184608C93ED
:1015B00081E08A95F1F789B19C919B7F9C93EAE247
:1015C000F0E09081906F90839C919D7F9C93829599
:1015D0008F7008950F931F93182F0E94BC0A082F35
:1015E0000295007F812F0E94BC0A802B1F910F91D2
:1015F000089580E00E94EA0A8823DCF30895EAE275
:10160000F0E080818160808380818260808380813E
:10161000846080838081806F808380E395E7019779
:10162000F1F783E060E00E94890A88E090E2019788
:10163000F1F783E060E00E94890A88EC90E001976E
:10164000F1F783E060E00E94890A82E68A95F1F76B
:1016500082E060E00E94890A0E94F90A88E260E064
:101660000E94AC0A0E94F90A88E060E00E94AC0A7D
:101670000E94F90A0895EBE2F0E080818F70808388
:1016800080818E7F808380818D7F808380818B7F2E
:1016900080830895F89408951F93162FBA0111239B
:1016A00081F020E030E0482F50E0D901A40FB51FB1
:1016B000FB01E20FF31F80818C932F5F3F4F2117B7
:1016C000A0F31F910895462F662379F0A9E9B1E0B0
:1016D00020E030E0682F70E0F901E60FF71F80810D
:1016E0008D932F5F3F4F2417B8F38AE363E220E026
:1016F0000E9432010895A9E9B1E091E0FD019193C2
:1017000085E0808312961C92129713969C931397F0
:1017100014969C938AE360E245E020E00E94320147
:101720000895FB01823239F0833269F0803279F416
:101730000E947B0B0895AB014E5F5F4F80816181FA
:101740000E944C0B0895808161810E94630B089573
:1017500081E060E00E94AC0A0E94F90A08951F939C
:10176000182F80910A018823B9F01A30B9F00E942D
:10177000F90A81E060E00E94AC0A0E94F90A82E066
:1017800060E00E94AC0A0E94F90A80E860E00E94D2
:10179000AC0A10920A0106C01A3021F481E080934D
:1017A0000A0106C00E94F90A812F61E00E94AC0A7A
:1017B0001F9108950F931F93CF93DF93EC01062F92
:1017C000888160E00E94AC0A023040F011E089811B
:1017D0000E94AF0B1F5F21961017C8F3DF91CF91C6
:1017E0001F910F9108950E94FF0A81E060E00E941E
:1017F000AC0A0E94F90A86E060E00E94AC0A0E94EE
:10180000F90A8CE060E00E94AC0A0E94F90A08958F
:10181000823129F0833159F0803159F403C00E949C
:10182000F30B0895CB01642F0E94DA0B08950E94F8
:10183000A80B0895853109F1863138F4823149F1D8
:10184000843169F18031E1F530C08C31A1F18D3105
:1018500018F48B31A9F517C0813319F08A3381F55B
:1018600006C0862FBA01422F0E947B0A0895862F58
:10187000BA01422F0E94910B0895862FBA01422F80
:101880000E947D040895862FBA01422F0E94EB0C1E
:101890000895862FBA01422F0E9447090895862F86
:1018A000BA01422F0E94BD070895862FBA01422F28
:1018B0000E94FC090895862FBA01422F0E94080C4D
:1018C0000895DC01E0916E008C91F0E0E80FF11DCD
:1018D00011968C9111978083E5B38C91F0E0E80F1D
:1018E000F11D12968C918083089580E890E0089510
:1018F0000F931F938C01DC018C910E94750CFC01ED
:10190000D80116968C911697858715968C91159708
:10191000848714968C911497838713968C911397D0
:10192000828712968C911297818711968C9180876D
:101930001F910F9108950F931F938C01DC018C91DF
:101940000E94750CFC01D80111968C91119785832A
:1019500012968C9184831F910F9108950F931F937A
:101960008C01DC018C910E94750CF8012181FC0135
:101970002193D80112968C911297808313968C91A3
:1019800081831F910F9108950F931F938C010E94E3
:10199000610CF8013296D8018C918083CF010E94AE
:1019A000AE0CF8013596D8018C918083CF010E944E
:1019B000780C1F910F910895FC01ABE0B1E081819B
:1019C0008C93808111968C93828180930D0184E0A9
:1019D00080936F0008958231B1F0833128F4803113
:1019E00051F08131F9F413C08431C9F0843138F0F9
:1019F0008531C1F410C0CB010E94AE0C0895CB011B
:101A00000E949B0C0895CB010E94780C0895CB0195
:101A10000E94610C0895CB010E94C40C0895CB0173
:101A20000E94DC0C08951F920F920FB60F921124A2
:101A30002F933F938F939F93EF93FF9380918A000F
:101A400090918B0020910B0130910C01821793072C
:101A500031F4EFE6F0E080818B7F80831CC08091C1
:101A60008A0090918B008217930758F4EAE8F0E01F
:101A70008081918120910D01821B91099183808346
:101A80000AC0EAE8F0E08081918120910D01820F87
:101A9000911D91838083FF91EF919F918F913F9151
:101AA0002F910F900FBE0F901F901895282F88230D
:101AB000E9F010928E0210928D0280918D02909129
:101AC0008E02845F914080F480918D0290918E020D
:101AD000019690938E0280938D0280918D02909159
:101AE0008E02845F914080F3215019F708951F9270
:101AF0000F920FB60F9211242F933F934F935F9342
:101B00006F937F938F939F93AF93BF93EF93FF93C5
:101B10008091E10082FF09C08091E20082FF05C050
:101B20008BEF8093E1000E944A018091E10080FFE9
:101B300029C08091E20080FF25C081E080931101DF
:101B4000E1EEF0E08FEE808380910E0190910F0125
:101B5000806290930F0180930E018EEF8083E2EEFE
:101B6000F0E080818061808380818F7D8083E8EDDB
:101B7000F0E0808180628083E9E4F0E080818D7F05
:101B8000808310828091E10084FF6CC08091E2002C
:101B900084FF68C009B400FC07C082E089BDE9E4A5
:101BA000F0E0808180FFFDCFE8EDF0E080818F7D67
:101BB00080838FEE8093E10080911101882309F4E6
:101BC00051C0E2EEF0E08081806280838081886095
:101BD00080838091E10084FF07C0E1EEF0E09FEE9A
:101BE0009083808184FDFCCF82E00E94560D80911D
:101BF000E10082FD08C08091E10085FD04C0809174
:101C0000E10083FF18C0E2EEF0E080818F7E8083E8
:101C100080910E0190910F01806490930F01809349
:101C20000E018081816080838081806280838081D9
:101C30008860808317C08091E10084FD47C0EBEF8E
:101C4000F0E080818F7D80838081806880838081C7
:101C50008F7B808380818F738083E2EEF0E08081D0
:101C60008F7E80838091E10085FF1AC08091E20021
:101C700085FF16C010921101E2EEF0E080818F7EA8
:101C800080838FED8093E10080818F7D80838091C0
:101C90000E0190910F01806890930F0180930E01C7
:101CA0008091E10083FF12C08091E20083FF0EC0AB
:101CB00087EF8093E1000E945B1280910E0190916A
:101CC0000F01916090930F0180930E01FF91EF91AE
:101CD000BF91AF919F918F917F916F915F914F9144
:101CE0003F912F910F900FBE0F901F9018950E945B
:101CF000AC0E08950E947D0E0895E8EDF0E080811D
:101D00008F7780838081806880830895E8EDF0E09C
:101D100080818062808382E089BDE9E4F0E0808197
:101D200080FFFDCFF894E8EDF0E080818F7D808327
:101D3000E0EEF0E080818E7F808380818B7F8083E6
:101D40000E945B12E2EEF0E08081816080838081FE
:101D5000886080837894089580911001882329F405
:101D600081E0809310010E94860E80910E01909177
:101D70000F0190FF10C080910E0190910F019E7F86
:101D800090930F0180930E01EAEEF0E081E08083F2
:101D90001082109296021092E9008091E80083FF71
:101DA00002C00E94EF0E089509B400FC07C082E053
:101DB00089BDE9E4F0E0808180FFFDCFE8EDF0E04F
:101DC00080818F7D808380911201813039F4E0EE33
:101DD000F0E08081826080831092120108950F9359
:101DE0001F93DF93CF9300D0CDB7DEB7E8EEF0E0DE
:101DF00080818B7F8083E1EFF0E0108100810630ED
:101E0000F9F0073068F4013009F425C1013008F415
:101E1000A3C1033009F462C1053009F030C2E8C043
:101E2000093009F402C10A3020F4083009F027C251
:101E3000C1C00A3009F4CFC10B3009F020C2FAC189
:101E4000103809F01CC2E1EFF0E060818081813040
:101E500019F08230A9F40AC082E18093970284E7E6
:101E600090E090939902809398020FC089E280934A
:101E7000970286E890E0909399028093980205C0BB
:101E80000E94BB01882309F4FAC1E1EFF0E08081F0
:101E90008081DE01119680818C93808111968C93D4
:101EA000E8EEF0E08081877F80834091970229816E
:101EB0003A81842F90E08217930740F48F719070DD
:101EC000892B11F050E005C051E003C02093970228
:101ED00050E0E8EEF0E080818F7E808340919702B1
:101EE000442309F449C08091E80084FF06C044C03F
:101EF000D8018C9184FF09C00CC0209198023091C8
:101F0000990208EE10E061EF70E0F801808180FF37
:101F1000EFCF842F942F4052841759F0F9012F5F8F
:101F20003F4FE491DB01EC93982F915011F0892FF2
:101F3000F3CFF801808184FD19C080818E7F80837A
:101F4000992339F430939902209398029093970241
:101F500013C0D8018C9184FD02C0492FD6CF309395
:101F60009902209398029093970206C030939902A9
:101F70002093980290939702513071F48091E80079
:101F800084FD0AC0E8EEF0E0808180FFFDCFE8EE3E
:101F9000F0E080818E7F8083E8EEF0E0808184FF36
:101FA000FDCFE8EEF0E080818F7E808380818B7FA3
:101FB000808378C1103809F062C1E8EEF0E08081DA
:101FC000877F8083809196028093F10080818E7F4D
:101FD000808380818F778083808182FFFDCFE8EED0
:101FE000F0E080818B7F808380818F7780835AC1EE
:101FF000112309F044C19091F100E3EEF0E08081FB
:102000009F778078982B9083E8EEF0E08081877F3F
:10201000808380818E7F8083808180FFFDCFE3EE8F
:10202000F0E08081806880833DC1112309F027C1E1
:102030009091F100923008F022C1E8EEF0E080814A
:10204000877F80839093960280818E7F8083892F03
:102050000E94FC0327C1112321F0123009F00FC1A7
:1020600003C08091F1000BC1E1EFF0E08081E081DD
:10207000882309F004C18091F100282F2F77209345
:10208000E9008091EB0080FD03C01092E900F7C0E9
:102090002223A1F0ABEEB0E08C9180618C9381E0C3
:1020A00090E0022E02C0880F991F0A94E2F7EAEE30
:1020B000F0E0808310828C9188608C931092E9000C
:1020C000EFE8F2E0E20FF11D1082E8EEF0E080812F
:1020D000877F808380818E7F8083E4C0112321F0FD
:1020E000123009F0CCC003C08091F100C8C0E1EF0C
:1020F000F0E08081E081882309F0C1C08091F10087
:10210000982F9F7751F4EBEEF0E08081806280831E
:10211000E8EEF0E08081877F80839093E9008091F2
:10212000EB0080FD03C01092E900A9C0EBEEF0E0E7
:102130008081806280831092E900EFE8F2E0E90F8D
:10214000F11D81E08083E8EEF0E08081877F80836D
:1021500080818E7F8083A6C0E1EFF0E08081808166
:102160009081113879F01238A9F0103809F087C041
:10217000E8EEF0E08081877F808380911301809377
:10218000F10016C0E8EEF0E08081877F8083109236
:10219000F1000EC0E8EEF0E08081877F8083E92FB8
:1021A000F0E0EF77F070E157FD4F80818093F10010
:1021B0001092F100E8EEF0E080818E7F80838081D4
:1021C00082FFFDCFE8EEF0E080818B7F808380810D
:1021D0008F77808367C0113809F051C0E1EFF0E0DC
:1021E00080819081DE01119680818C93808111968F
:1021F0008C93992309F043C008EE10E0F801808128
:10220000877F808389819A810E9496018093F10063
:10221000D8018C918E7F8C93E8EEF0E0808182FF74
:10222000FDCFE8EEF0E080818B7F808380818F7727
:10223000808338C0113019F5E1EFF0E060819081C2
:10224000DE01119680818C93808111968C93992365
:10225000B1F408EE10E0F8018081877F80838981E6
:102260009A810E9498011092E900D8018C918E7F8A
:102270008C93E8EEF0E0808180FFFDCF13C0812FCA
:10228000602F0E94C203882369F4EBEEF0E08081A6
:1022900080628083E8EEF0E08081877F808381E048
:1022A00080938F020F900F90CF91DF911F910F912C
:1022B000089508950E94770E0E947A01FBCF0E9434
:1022C0007A0E0E94830108950E945F110E945A11A4
:1022D00008958FB7F89497EF94BF98E10FB6F894EC
:1022E00090936000109260000FBE88230CF47894E5
:1022F0000895982F3FB7F89487EF84BF93FD02C0ED
:1023000028E001C028E2892F8770282B88E190E01F
:102310000FB6F894A895809360000FBE20936000DC
:1023200033230CF478940895982F3FB787EF84BF38
:1023300093FD02C020E401C020E6892F8770282B7E
:1023400088E190E00FB6F894A895809360000FBEE6
:102350002093600033230CF478940895982F3FB7AE
:10236000F89487EF84BF93FD02C028E401C028E6FB
:10237000892F8770282B88E190E00FB6F894A895F4
:10238000809360000FBE2093600033230CF4789498
:10239000089580919A0290919B02A0919C02B09125
:1023A0009D0285559A4AAA4AB54569F410929A0247
:1023B00010929B0210929C0210929D02E0910001EB
:1023C000F091010109950895E0910001F09101015A
:1023D0000995089585E59AEAAAEAB5E580939A02F7
:1023E00090939B02A0939C02B0939D0285E00E9473
:1023F0007911FFCFEBEEF0E09081916090838093B4
:10240000EC00EDEEF0E080818270682B60838081CB
:10241000826080838091EE008823881F8827881F30
:1024200008959091F40080E090FD06C08F5F8730A2
:1024300011F09695F9CF80E00895CF93DF93FB01DB
:102440008093E9008091E80085FF0EC0442361F08D
:10245000C1EFD0E0A8EEB0E08191888341508C912B
:1024600085FF02C04423C1F7842FDF91CF910895E7
:10247000CF93DF93FB018093E9008091E80085FF13
:102480000EC0442361F0C1EFD0E0A8EEB0E0888137
:10249000819341508C9185FF02C04423C1F7842F62
:1024A000DF91CF9108958093E900EBEEF0E0808119
:1024B0008062808308951092E9008091EB0080FF94
:1024C00002C080E008951092E90082E060E20E947C
:1024D000FA110895E3E5F0E0108280818560808341
:1024E00088950895E3E5F0E0108280818160808323
:1024F00088950895E3E5F0E0108280818360808311
:1025000088950895E3E5F0E01082808187608083FC
:1025100088950895E3E5F0E0108280818D608083E6
:1025200088950895E3E5F0E0108280818F608083D4
:1025300088950895E0EDF0E0808184608083E2ED8D
:10254000F0E0808180FFFDCFE0EDF0E080818160F0
:1025500080838081877F80830895E0EDF0E0808133
:1025600088608083E2EDF0E0808181FFFDCFE0EDC7
:10257000F0E080818E7F808380818B7F80830895CF
:102580000FD0F72FE62F41E247BFC895802D08C036
:1025900007D0F72FE62F49E047BFC895802D00C030
:1025A000022E27B720FDFCCF202D0895DC01CB01A2
:1025B000FC01F999FECF06C0F2BDE1BDF89A319653
:1025C00000B40D9241505040B8F70895DC01CB01A2
:1025D00003C02D910E94F11241505040D0F7089550
:1025E000262FF999FECF1FBA92BD81BD20BD0FB62F
:1025F000F894FA9AF99A0FBE01960895F894FFCFCD
:022600000018C0
:00000001FF
